S0160000414D49544B49545F414C455831392E7372656308
S11300000C942A000C9434000C9434000C943400A6
S11300100C9434000C9434000C9434000C9434008C
S11300200C9434000C9434000C9434000C9434007C
S11300300C9434000C9434000C9434000C9434006C
S11300400C9434000C9434000C9434000C9434005C
S11300500C94340011241FBECFE5D8E0DEBFCDBF21
S11300600E94B4000C9457010C94000095B321E055
S113007030E002C0220F331F8A95E2F7292B25BBFB
S1130080089592B321E030E002C0220F331F8A9515
S1130090E2F7292B22BB089595B321E030E002C09A
S11300A0220F331F8A95E2F72095292325BB089553
S11300B092B321E030E002C0220F331F8A95E2F7A9
S11300C02095292322BB0895009719F0019769F020
S11300D017C024B381E090E002C0880F991F6A958D
S11300E0E2F78095822384BB089524B381E090E0F5
S11300F002C0880F991F6A95E2F7822B84BB08958A
S113010024B381E090E002C0880F991F6A95E2F75A
S11301108095822384BB0895009719F0019769F0B4
S113012017C021B381E090E002C0880F991F6A953F
S1130130E2F78095822381BB089521B381E090E0AA
S113014002C0880F991F6A95E2F7822B81BB08953C
S113015021B381E090E002C0880F991F6A95E2F70D
S11301608095822381BB08950E94440180E090E041
S11301700E941E0180E090E00E94310181E090E045
S11301800E940B012FEF89E698E1215080409040B6
S1130190E1F700C0000080E090E00E940B0180E0E5
S11301A090E00E94310181E090E00E941E012FEF57
S11301B089E698E1215080409040E1F700C00000BA
S11301C080E090E00E940B0180E090E00E941E011C
S11301D081E090E00E9431012FEF89E698E12150FF
S11301E080409040E1F700C0000080E090E00E9471
S11301F00B0180E090E00E94310181E090E00E94D8
S11302001E012FEF89E698E1215080409040E1F7EC
S113021000C00000ABCF009739F0019751F482E0A1
S113022090E00E943600089582E090E00E944C0025
S1130230089582E090E00E944C000895009739F000
S1130240019751F487E090E00E943600089587E01A
S113025090E00E944C00089587E090E00E944C00DA
S11302600895009739F0019751F483E090E00E94DB
S11302704100089583E090E00E945800089583E0CF
S113028090E00E945800089562E070E081E090E000
S11302900E94640067E070E081E090E00E946400E6
S11302A063E070E081E090E00E948C000895F8948F
S10502B0FFCF7A
S9030000FC
