:100000000C942A000C943F000C943F000C943F0089
:100010000C943F000C943F000C943F000C943F0064
:100020000C943F000C943F000C943F000C943F0054
:100030000C943F000C943F000C943F000C943F0044
:100040000C943F000C943F000C943F000C943F0034
:100050000C943F0011241FBECFE5D8E0DEBFCDBF1A
:1000600010E0A0E6B0E0EAE5F1E002C005900D92F4
:10007000A636B107D9F70E94A4000C94AB000C94EB
:10008000000092B321E030E002C0220F331F8A95B6
:10009000E2F7292B22BB089592B321E030E002C0A1
:1000A000220F331F8A95E2F72095292322BB08955A
:1000B00081E090E00E9441008FE39CE90197F1F715
:1000C00000C0000081E090E00E944C008FE19EE4BF
:1000D0000197F1F700C00000089585BB80E090E033
:1000E0000E944C000E945800089581E00E946D001B
:1000F00008958FEF84BB81B3836081BB0E9475003C
:1001000088E30E946D008CE00E946D008FE39CE903
:100110000197F1F700C00000089585BB80E090E0F2
:100120000E9441000E9458000895CF93DF93EC0194
:100130008881882331F021960E948D008991811158
:10014000FBCFDF91CF9108950E94790080E690E087
:0A0150000E949500FFCFF894FFCF46
:06015A0048656C6C6F00AB
:00000001FF
